:020000040800F2
:100000003806002001010008711200087312000870
:10001000771200087B1200087F1200080000000021
:100020000000000000000000000000008312000833
:1000300085120008000000008712000889120008DD
:100040001B0100081B0100081B0100088B1200089F
:100050001B0100081B0100081B0100081B01000810
:100060001B0100081B0100081B0100081B01000800
:100070001B0100081B0100081B0100081B010008F0
:100080001B0100081B0100081B0100081B010008E0
:100090001B0100081B0100081B0100081B010008D0
:1000A0001B0100081B0100081B0100081B010008C0
:1000B0001B0100081B0100081B0100081B010008B0
:1000C0001B0100081B0100081B0100081B010008A0
:1000D0001B0100081B0100081B0100081B01000890
:1000E0001B0100081B0100081B010008DFF80CD0F1
:1000F00002F09AF900480047C111000838060020B4
:100100000648804706480047FEE7FEE7FEE7FEE7B1
:10011000FEE7FEE7FEE7FEE7FEE7FEE70302000874
:10012000ED0000080CB50020019000906C480068BC
:1001300040F480306A49086000BF6948006800F4F4
:10014000003000900198401C0190009818B9019867
:10015000B0F5A06FF1D16248006800F4003010B132
:100160000120009001E0002000900098012843D178
:100170005C48006840F010005A4908600846006872
:1001800020F0030008600846006840F002000860A4
:1001900053484068524948600846406848600846ED
:1001A000406840F4806048600846406820F47C1055
:1001B00048600846406840F4E81048600846006817
:1001C00040F08070086000BF4548006800F0007093
:1001D0000028F9D04248406820F0030040494860B8
:1001E0000846406840F00200486000BF3C48406854
:1001F00000F00C000828F9D10CBD10B5FFF792FFF4
:1002000010BD10B53648006840F001003449086060
:10021000084640683449084031494860084600684B
:10022000324908402E4908600846006820F48020C2
:1002300008600846406820F4FE0048604FF41F0044
:100240008860FFF7DAFF4FF000602949086010BDB1
:1002500010B5002100200022214B5B6803F00C0147
:1002600021B1042906D0082928D107E0214B224CCE
:10027000236027E01F4B204C236023E0184B5B6872
:1002800003F47010164B5B6803F48032022303EB17
:10029000904022B9194B4343174C23600DE0104B9B
:1002A0005B6803F4003323B1144B4343124C2360C7
:1002B00003E0104B4343104C236003E00D4B0E4C06
:1002C000236000BF00BF064B5B68C3F303130C4CF5
:1002D000E15C094B1B68CB40074C236010BD00005C
:1002E00000100240002002400000FFF8FFFFF6FE71
:1002F00008ED00E000127A000000002000093D0037
:100300000400002031490143314A1160704770B543
:10031000002100230F22C47804B32D4C246804F478
:10032000E064C4F5E064210AC1F10403CA404478E2
:1003300004FA03F18478144021430901254C06781E
:10034000A155047804F01F050124AC4005786D1117
:10035000AD0005F1E025C5F8004109E0047804F09E
:100360001F050124AC401C4D0678761145F8264047
:1003700070BD1A4A0A400243154B1B1F1A60704792
:1003800039B1134A121D12680243114B1B1D1A602A
:1003900006E00F4A121D126882430D4B1B1D1A60A6
:1003A0007047042808D14FF0E021096941F00401A9
:1003B0004FF0E022116107E04FF0E021096921F0E0
:1003C00004014FF0E0221161704700000000FA05BF
:1003D0000CED00E000E400E080E100E080FFFF1FA2
:1003E00010B5012000F014FC002000F011FC10BD3D
:1003F0002A49086070472949091F08607047274942
:1004000084310860704701460020254A10884FF665
:100410007F4210400843224A108070470146002066
:100420001F4A10884FF68072104008431C4A108003
:10043000704708B500220092194A2C3A0092009A9F
:1004400002440092009A116008BD08B501460020E0
:10045000009013482C3800900098084400900098B1
:10046000008808BD0D489C300068C0B270470C4839
:100470000830008840F001000949083108807047C1
:100480000648A0300068C0B27047054808300088B0
:1004900040F00200024908310880704704860D428E
:1004A0002C6C004010B50446CC48844208D1012190
:1004B000042000F093FB0021042000F08FFB46E0B5
:1004C000C748844208D10121082000F087FB0021A1
:1004D000082000F083FB3AE0C248844208D10121A1
:1004E000102000F07BFB0021102000F077FB2EE0B5
:1004F000BD48844208D10121202000F06FFB00217B
:10050000202000F06BFB22E0B848844208D1012192
:10051000402000F063FB0021402000F05FFB16E06C
:10052000B348844208D10121802000F057FB00210C
:10053000802000F053FB0AE0AE48844207D101213D
:10054000801500F04BFB0021A01500F047FB10BD0B
:1005500010B50121084600F041FB0021012000F008
:100560003DFB10BD2DE9F04102460025002600208C
:1005700000230024002791F803C00CF00F0591F828
:1005800003C00CF0100CBCF1000F03D091F802C0B6
:100590004CEA050591F800C0BCF1000F31D0146899
:1005A00000202BE04FF0010C0CFA00F3B1F800C072
:1005B0000CEA03069E4220D183004FF00F0C0CFA88
:1005C00003F7BC4305FA03FC4CEA040491F803C0AA
:1005D000BCF1280F06D14FF0010C0CFA00FCC2F858
:1005E00014C00AE091F803C0BCF1480F05D14FF0E8
:1005F000010C0CFA00FCC2F810C0401C0828D1D332
:100600001460B1F800C0BCF1FF0F34DD5468002065
:100610002EE000F1080C4FF0010808FA0CF3B1F8D5
:1006200000C00CEA03069E4221D183004FF00F0C5C
:100630000CFA03F7BC4305FA03FC4CEA040491F8F6
:1006400003C0BCF1280F05D100F1080C08FA0CF822
:10065000C2F8148091F803C0BCF1480F07D100F133
:10066000080C4FF0010808FA0CF8C2F81080401C82
:100670000828CED35460BDE8F0814FF6FF710180A9
:10068000022181700421C1707047024600209368E6
:100690000B400BB1012000E0002070470146886844
:1006A00080B2704702460020D3680B400BB1012096
:1006B00000E0002070470146C86880B270470161C1
:1006C0007047416170470AB1016100E041617047C4
:1006D000C16070474FF480320A4382618161826158
:1006E00082698269704702460020434B18684FF6C2
:1006F0008073184040EA021008433F4B186070476F
:100700003E49C8617047F0B50A4600230024002125
:10071000002500F00046B6F1004F02D1364EF169D7
:1007200001E0354E7168C0F3034583B200F4401612
:10073000B6F5401F08D121F070612F4E766826F083
:1007400070662D4F7E6012E000F48016B6F5801FB3
:1007500006D1032606FA05F4A14341F0706106E0D4
:10076000460D360103FA06F6B14341F0706122B13D
:10077000460D360103FA06F6314300F00046B6F1A5
:10078000004F02D11C4EF16101E01B4E7160F0BDC3
:1007900030B500228B071C0F0F2303FA04F2164B0F
:1007A00008338C1053F824309343134C08348D10C5
:1007B00044F8253023468C1053F824308C07240F3E
:1007C00000FA04F423430C4C08348D1044F825300F
:1007D00030BD0A49DC310860704700000008014064
:1007E000000C0140001001400014014000180140BD
:1007F000001C014000200140000001400000204298
:1008000010B50121080700F0F6F900214FF08050E3
:1008100000F0F1F910BD2A490862704728490861C3
:10082000704701460020274A106820F0E000084386
:10083000106070472249A0310860704710B5024629
:100840000020204B186820F00300104318601E4B56
:100850001B6843F004031C4C2360012901D130BF05
:1008600000E020BF184B1B6823F00403164C2360E4
:1008700010BD1448006840F00400124908600846A2
:10088000006840F0020008600F48006840F0040073
:100890000D49086000BF00BF30BF7047014600200F
:1008A000084A52680A400AB1012000E0002070475F
:1008B0000449096841EA8001024A1160704700005A
:1008C00000000E420070004010ED00E0DF480068BC
:1008D00040F00100DD49086008464068DC490840F6
:1008E000DA49486008460068DA490840D749086094
:1008F0000846006820F4802008600846406820F41C
:10090000FE0048604FF41F0088607047CF490968B7
:1009100021F48031CD4A11601146096821F480210B
:100920001160B0F5803F03D0B0F5802F0ED106E006
:10093000C649096841F48031C44A116007E0C349DF
:10094000096841F4A021C14A116000E000BF00BF66
:10095000704710B501460022002300204A11012AE9
:1009600002D1BA4C236806E0022A02D1B74C236AAE
:1009700001E0B64C636A01F01F02012494401C4060
:100980000CB1012000E0002010BD38B5002000901F
:100990000024002500BF3120FFF7DBFF054600984B
:1009A000401C00900098B0F5A06F01D0002DF2D04F
:1009B0003120FFF7CEFF08B1012400E000242046DB
:1009C00038BD01460020A14A106820F0F80040EA36
:1009D000C10010607047A0490860704702460020BF
:1009E0009A4B586820F47C1042EA01031843974B55
:1009F0005860704798490866704701460020934A3E
:100A0000506820F003000843506070478F484068EA
:100A100000F00C007047014600208C4A506820F01E
:100A2000F00008435060704701460020874A506834
:100A300020F4E06008435060704701460020834A7C
:100A4000506820F4605040EAC1005060704729B1FE
:100A50007E4A527A02437D4B5A7204E07B4A527AB4
:100A600082437A4B5A7270477B49D831086070478D
:100A700001460020754A506820F440400843506009
:100A800070470021714A20321170704A82F820109C
:100A9000012802D004280AD104E001216B4A203247
:100AA000117005E00521694A2032117000E000BF95
:100AB00000BF70476949086070476449096A01438B
:100AC000624A11627047654944390860704730B521
:100AD00000210022002400235C4D6D6805F00C010C
:100AE00021B1042905D0082923D105E05C4D05601A
:100AF00022E05B4D05601FE0544D6D6805F47012F7
:100B0000524D6D6805F48034022505EB92421CB904
:100B1000544D554305600BE04C4D6D6805F40035B0
:100B20001DB1504D5543056002E04D4D55430560E4
:100B300002E04B4D056000BF00BF444D6D6805F0FD
:100B4000F0010909484D6B5C0568DD4045603F4D8B
:100B50006D6805F4E061090A434D6B5C4568DD4052
:100B600085603A4D6D6805F46051C90A3E4D6B5C75
:100B70004568DD40C560354D6D6805F44041890B21
:100B80003A4D6B5CC568B5FBF3F5056130BD29B125
:100B90002E4A526902432D4B5A6104E02B4A526996
:100BA00082432A4B5A61704729B1284A926902430D
:100BB000264B9A6104E0254A92698243234B9A614D
:100BC000704729B1214AD2690243204BDA6104E01F
:100BD0001E4AD26982431D4BDA61704729B11B4A14
:100BE000D2680243194BDA6004E0184AD2688243A3
:100BF000164BDA60704729B1144A12690243134B4D
:100C00001A6104E0114A12698243104B1A6170475D
:100C100012494039086070470F49C86470470B4952
:100C2000C87170470948406A40F0807007494862BF
:100C3000704701460020054A92680A400AB1012027
:100C400000E00020704701498872704700100240A0
:100C50000000FFF8FFFFF6FE00004242800442421F
:100C600000127A0000093D0014000020240000203A
:100C700029B1504A128802434E4B1A8004E04D4A73
:100C8000128882434B4B1A8070474A48001D0088E7
:100C900040F010004749091D088070474548001D75
:100CA00000884FF6EF7108404249091D08807047DF
:100CB000002140481C300188001F008841EA0040A4
:100CC000704700B50246FFF7E0FF100C39491831B4
:100CD0000880091D0A80FFF7E1FF00BD00B502464C
:100CE000FFF7D3FFC2F30340324908310880091DE2
:100CF0000A80FFF7D3FF00BD00B50246FFF7C5FF2E
:100D0000100C2C4920310880091D0A80FFF7C6FF0E
:100D100000BD00202749103109880907080B254923
:100D2000143109880843704700BF2248001D00881D
:100D300000F020000028F8D070471E48001D0088F1
:100D40004FF6F77108401B49091D088000BF19487C
:100D5000001D008800F008000028F8D07047014608
:100D60000020144A121D12880A400AB1012000E036
:100D7000002070470F49091D098881430D4A121D43
:100D800011807047014600200A4A121D12880A404D
:100D9000D0B2084A12880A4012B108B1012000E01E
:100DA000002070470349091D09888143014A121D2B
:100DB000118070470028004010B50446FB4884426B
:100DC00009D101218803FFF709FF00214FF480407A
:100DD000FFF704FF32E0F648844209D101214804BC
:100DE000FFF709FF00214FF40030FFF704FF25E073
:100DF000F048844209D101218804FFF7FCFE00215C
:100E00004FF48020FFF7F7FE18E0EB48844209D149
:100E10000121C804FFF7EFFE00214FF40020FFF787
:100E2000EAFE0BE0E548844208D101210805FFF7FE
:100E3000E2FE00214FF48010FFF7DDFE10BD2DE92A
:100E4000F04786B005460E460024A24600BFA146E4
:100E50000027B08900B100BF2F462C8A4CF6FF70E6
:100E60000440F08804432C82AC894EF6F310044011
:100E7000B08831890843718908430443AC81AC8A46
:100E80004FF6FF400440B0890443AC8201A8FFF74D
:100E90001EFEC648874202D1DDF810A001E0DDF851
:100EA0000CA0A88900F4004040B10AEBCA0000EB96
:100EB0000A1031684900B0FBF1F807E00AEBCA00FC
:100EC00000EB0A1031688900B0FBF1F86420B8FB30
:100ED000F0F004012009642101FB1089A88900F4C5
:100EE000004040B1322000EBC900B0FBF1F000F04F
:100EF0000700044308E0322000EB09106421B0FB36
:100F0000F1F000F00F0004432C8106B0BDE8F0873B
:100F10004FF41651016000218180C18001810C21B4
:100F2000418100218181704710B502460020108A5E
:100F30004FF2FF0318400B884C8823438C882343CF
:100F4000CC8823431843108210BD002101804180CA
:100F50008180C180704721B1828942F40052828130
:100F600004E082894DF6FF731A4082817047F0B524
:100F70000346002400260025002040F66A17B942E7
:100F800000D100BF1846C1F3421401F01F0601272B
:100F900007FA06F5012C01D10C3004E0022C01D136
:100FA000103000E014301AB107682F43076002E0E8
:100FB0000768AF430760F0BD1AB1838A0B43838291
:100FC00002E0838A8B4383827047028A4FF6F07374
:100FD0001A400282028A0A430282704782894FF2D3
:100FE000FF731A40828182890A438281704721B14E
:100FF000828942F00202828104E082894FF6FD7309
:101000001A4082817047028A4FF6DF731A400282CB
:10101000028A0A430282704721B1028A42F4804266
:10102000028204E0028A4BF6FF731A400282704784
:10103000C1F308028280704701468888C0F3080027
:101040007047818941F0010181817047028BD2B2E2
:101050000283028B42EA012202837047028B02F470
:101060007F420283028B0A430283704721B1828A46
:1010700042F02002828204E0828A4FF6DF731A4037
:101080008282704721B1828A42F01002828204E09B
:10109000828A4FF6EF731A408282704721B1828AAA
:1010A00042F00802828204E0828A4FF6F7731A4007
:1010B0008282704721B1828942F40042828103E03A
:1010C0008289C2F30E028281704721B1828A42F482
:1010D0000062828204E0828A4FF2FF731A408282A9
:1010E0007047828A4FF6FB731A408282828A0A43D3
:1010F0008282704721B1828A42F00202828204E039
:10110000828A4FF6FD731A408282704702460020A1
:10111000B1F5007F00D100BF13880B400BB1012057
:1011200000E00020704701F40072B2F5007F00D1AA
:1011300000BFCA430280704770B5024600240023F6
:101140000025002040F66A16B14200D100BFC1F36D
:10115000421501F01F03012606FA03F3012D02D107
:101160009689334006E0022D02D1168A334001E011
:10117000968A33400C12012606FA04F4168834408D
:1011800013B10CB1012000E0002070BD10B50022A9
:10119000002340F66A14A14200D100BF0A120124C4
:1011A0009440A3B2DC43048010BD0000003801402D
:1011B0000044004000480040004C00400050004007
:1011C00088B000F08FFF00F0EBFF01F01DF800F099
:1011D000A9FC214800F0FBFC204800F0FEFBA0F534
:1011E000E1442046FFF788FD35E01D4800680128EE
:1011F00009D1FFF75DFD05461749284600F006FEB8
:101200000020174908600121164800F0E4FF01287A
:101210000BD101A800F018FD01A800F0C4FC4AF2AF
:10122000A5510420FFF705F900BF0F480068012809
:1012300003D102210B48FFF742FA4FF400510B484B
:1012400000F0C9FF012806D102210648FFF739FA4C
:10125000002005490860C8E728000020440000205D
:1012600088010020000801408C010020001001408E
:10127000704700BFFEE700BFFEE700BFFEE700BF0C
:10128000FEE7704770477047704710B50120FFF7C1
:1012900079FD38B10120FFF785FD0120074908607D
:1012A000FFF742FD0220FFF76DFD10B10120044958
:1012B00008600320FFF776FD10BD000088010020C4
:1012C0008C01002002460E2A70D2DFE802F0860769
:1012D0001019222B353F49535D67727CF748405CFB
:1012E00000F0080008B9002070470120FCE7F3482F
:1012F000405C00F0040008B90020F5E70120F3E7A6
:10130000EE48405C00F0020008B90020ECE7012044
:10131000EAE7EA48405C00F0010008B90020E3E792
:101320000120E1E7E54B481C185C00F0800008B99B
:101330000020D9E70120D7E7E04B481C185C00F0FB
:10134000400008B90020CFE70120CDE7DB4B481C67
:10135000185C00F0200008B90020C5E70120C3E7B1
:10136000D64B481C185C00F0100008B90020BBE701
:101370000120B9E7D14B481C185C00F0080008B9FF
:101380000020B1E70120AFE7CC4B481C185C00F00F
:10139000040008B90020A7E70120A5E7C74B481CB7
:1013A000185C00F0020010B900209DE715E0012054
:1013B0009AE7C24B481C185C00F0010008B90020F5
:1013C00092E7012090E7BD4B881C185C00F080007C
:1013D00008B9002088E7012086E7002084E72DE98E
:1013E000FF4F83B00C461F466421039890FBF1F039
:1013F000C0B20190039890FBF1F201FB1200C5B25C
:101400000198132806D00198142803D0002007B0B3
:10141000BDE8F08F0198142806D105F1630000EBB8
:1014200040001FFA80F904E0681E00EB40001FFA3C
:1014300080F9A24909F10200085C00F0600A4FEA55
:101440006A1A09F10200085C00F01F0BBAF1010FE3
:1014500004D1ABF1010000F0FF0803E00BF11E0026
:1014600000F0FF080A2C07DA601E9549095C059810
:101470000844401E86B208E0A4F10A00914931F800
:10148000101005980844401E86B2022C08DDE917AA
:1014900005EB91718910A5EB810109B9701C86B229
:1014A00046453EDBA6EB080086B2012401200290EF
:1014B0000020009049460298FFF704FF10B94FF052
:1014C0001D0A01E04FF01E0A7C4911F80900C117FE
:1014D00000EB11714FEA211B1DE0A6EB0A0086B25A
:1014E0000298401CC0B202905C4508D10098C043ED
:1014F000C0B20090009820B9601CC4B201E0601C2A
:10150000C4B249460298FFF7DDFE10B94FF01D0A3C
:1015100001E04FF01E0A5645DFDA701CC0B205909C
:101520004FE0A8EB060000F0FF081DB9632513206B
:10153000019001E0681EC5B2A9F103001FFA80F90D
:101540000C245E4911F80900C11700EB11714FEA34
:10155000211BBBF1000F02D10C20029001E00D20F5
:1015600002900020009049460298FFF7ABFE10B9A8
:101570004FF01D0A01E04FF01E0A1BE0A8EB0A0025
:1015800000F0FF080298401EC0B20290009808B90F
:10159000601EC4B25C4503D10098C043C0B2009045
:1015A00049460298FFF78EFE10B94FF01D0A01E080
:1015B0004FF01E0AD045E1DCAAEB0800401CC0B287
:1015C0000590019807F8010B07F8015B07F8014B3C
:1015D0000598387001201AE710B50A46B0F5F86F83
:1015E00009DBA0F5F86398B23C2390FBF3F403FB0E
:1015F0001403D9B20AE0C0F5F86398B23C2390FB1B
:10160000F3F403FB1403C3F13C03D9B2117010BD12
:1016100010B5002305E011F8014B00F8014B5C1CEC
:10162000A3B29342F7DB10BD2DE9FC4105460E46FF
:1016300017461C460F2224A12046FFF7E9FF01AB05
:101640003A4631462846FFF7CAFE08B9BDE8FC8194
:101650009DF805209DF8041001EBC10303EB011177
:1016600002EB81006946FFF7B7FF9DF800000A21F1
:1016700090FBF1F201FB1200174951F82080022281
:1016800041462046FFF7C4FF9DF800000C2190FB67
:10169000F1F201FB1200114951F82080022241466B
:1016A000A01CFFF7B5FF9DF8060001281AD1022201
:1016B0000BA1A01DFFF7ACFF1EE00000502A0008A0
:1016C000562D0008602D0008BCD7D7D3C4EAD5FD3D
:1016D000D4C2B3F5D2BB0000C0000020E800002057
:1016E000D5FD00009DF80600401E8C4A52F82010DF
:1016F0000222A01DFFF78CFF9DF807000A280EDDCF
:101700009DF807000A2190FBF1F0854951F82080EF
:101710000222414604F10A00FFF77AFF05E00222A7
:1017200080A104F10A00FFF773FF9DF80700401E37
:101730000A2190FBF1F201FB1200784951F8208058
:101740000222414604F10C00FFF762FF00BF7DE773
:101750002DE9F04104460D46B4F5FA6F03DB40F67F
:101760000200844202DD0020BDE8F0810DB10C2DA5
:1017700001DD0020F8E7681E4006010E0F2A01DB9C
:10178000481CC1B208464FEAE17C01EB5C7C4FEAA1
:10179000EC08A4F5FA6C0CEB4C0CC444DFF888811F
:1017A00018F80C604FEAE17C01EB5C7C4FEAEC0C32
:1017B000A1EBCC0C06FA0CFC0CF080075B48405CFB
:1017C000187097B1012905D00B2903D0122901D037
:1017D000152907D140F2FC70844203DA1878401CC6
:1017E000187002E01878401E18700120BCE72DE93F
:1017F000F8430546884614461E466B462246414637
:101800002846FFF7A5FF10B90020BDE8F883A8F12E
:1018100001004006070E0F2C01DB781CC7B29DF8B3
:101820000000844208D1424850F827100522304673
:10183000FFF7EEFE0120E8E70F223EA13046FFF75A
:10184000E7FE9DF8000084420BDA394850F8271073
:101850000422B01CFFF7DCFE9DF80000001BC4B2A0
:101860004DE0781C172801DD0020CEE7304A781CB7
:1018700052F820100422B01CFFF7CAFE0F2C0ADA1F
:101880006B460F2241462846FFF762FF9DF8000095
:10189000001BC4B233E0A8F101002A4911F80090FE
:1018A000B8F1020F17D1E91705EB91718910A5EB7B
:1018B000810181B9642195FBF1F201FB125131B92B
:1018C0004FF4C87195FBF1F201FB125119B909F1FE
:1018D000010000F0FF0908F10100C0B280460D28A8
:1018E00001D14FF001086B46012241462846FFF71F
:1018F0002FFFA9EB04009DF800100844C4B20A2091
:1019000094FBF0F03030B0720A2094FBF0F100FB51
:1019100011403030F072012077E7000018010020FC
:1019200048010020B3F50000A52C00083E2D00085A
:1019300060000020C0EBC1A2B6ACBBB9D3D03F3F22
:10194000CCEC0000722D0008F0B58DB004463022BA
:10195000704901A800F072FC6069451E642195FB86
:10196000F1F12846EA1705EB9272C1EBA2014FF4A0
:10197000C87295FBF2F28F186069C11700EB917184
:101980008910A0EB810191B96422616991FBF2F3A6
:1019900002FB131131B99200616991FBF2F302FB72
:1019A000131121B92169022901DD012600E0002679
:1019B00040F26D1005FB00712069401E01AA52F82B
:1019C00020000844E16808440644072096FBF0F133
:1019D00000FB1160A0610DB0F0BD10B501460869B3
:1019E000801E0861002805DC08690C300861486920
:1019F000401E48616423486990FBF3F04A69D3179D
:101A000002EB9373C0EBA3004FF4C87492FBF4F3A2
:101A1000034440F26F14086960430C2490FBF4F017
:101A20001844CB68034440F26D1402FB04303A4B77
:101A3000C01A00EB40008B6803EBC000C0EB001045
:101A40004B6803EB8000C0EB00100B6803EB8000D9
:101A500010BD2DE9F04107460C463048B7FBF0F6C3
:101A6000B7FBF0F100FB11784FF4616098FBF0F0E8
:101A7000A0604FF4616098FBF0F100FB11803C2105
:101A800090FBF1F060604FF4616098FBF0F100FBB7
:101A900011803C2190FBF1F201FB1200206040F22A
:101AA000B27509E005F0030010B94FF4B77001E01A
:101AB00040F26D10361A6D1C05F0030010B94FF49A
:101AC000B77001E040F26D10B042EBDD6561606916
:101AD000C11700EB91718910A0EB810111B91D2094
:101AE0000F494860012505E0681E0D4951F82000A6
:101AF000361A6D1C681E0A4951F82000B042F3DD09
:101B00001C2048602561701CE0602046FFF71CFF28
:101B1000BDE8F081802D00088BFA0A008051010099
:101B20005801002008B54FF4C060FEF7EBFB03201E
:101B30008DF8000001208DF8010000208DF80200D2
:101B400001208DF803006846FEF7E1FB08BD10B5E3
:101B500001214FF0C050FFF734F80120FEF75BFE83
:101B6000FEF73EFC0120FEF78CFF00BF4120FEF790
:101B7000F0FE0028FAD04FF48070FEF79EFF01209F
:101B8000FEF7A1FFFFF7D9F8FFF7CEF801210320F8
:101B9000FFF76EF8FFF7C8F847F6FF70FFF79EF8FB
:101BA000FFF7C2F810BD70B50446FFF7D0FFFFF78E
:101BB000BBF82046FFF7C8FE2046FFF70EFFA0F552
:101BC000E1452846FFF77DF8FFF7AEF870BD10B588
:101BD00004460420FEF739FC4AF2A55188420ED093
:101BE000C3A000F039FECAA000F036FE2046FFF781
:101BF000DAFF4AF2A5510420FEF71BFC21E0012187
:101C00004FF0C050FEF7DDFF0120FEF704FE7B2001
:101C1000FEF79FFE18B1C4A000F01EFE06E07A2079
:101C2000FEF797FE10B1C9A000F016FED0A000F09C
:101C300013FEFFF782F801210320FFF719F8FFF7E1
:101C400073F8FEF7EFFF10BD38B504460020009092
:101C50000025CFA000F000FE00BFDB4800F0FCFD37
:101C60006946DAA000F0FCFA40F2B27100988842AE
:101C700004D340F2F6710098884204D9D4A00099A8
:101C800000F0EAFD06E0DBA0009900F0E5FD009819
:101C9000606100E0E1E700BF00BFDC4800F0DCFD70
:101CA0006946CAA000F0DCFA009810B100980C2830
:101CB00004D9C7A0009900F0CFFD06E0D4A0009998
:101CC00000F0CAFD0098206100E0E6E700BF20694F
:101CD0000D2832D2DFE800F0310714080F09100A8E
:101CE0000B110C120D0000BF00BF00BF00BF00BFF2
:101CF00000BF1F2521E000BF00BF00BF1E251CE064
:101D00006069C11700EB91718910A0EB810191B955
:101D10006422616991FBF2F302FB131131B9920065
:101D2000616991FBF2F302FB131121B921690229C8
:101D300001DD1D2500E01C2500BF00BF00BF2946B6
:101D4000B94800F089FD6946A0A000F089FA009822
:101D500010B10098A84204D99DA0009900F07CFD24
:101D600006E0B2A0009900F077FD0098E06000E086
:101D7000E5E700BF00BFB34800F06EFD694693A0E1
:101D800000F06EFA0098172804D991A0009900F08D
:101D900063FD06E0ACA0009900F05EFD0098A06035
:101DA00000E0E8E700BF00BFAD4800F055FD694620
:101DB00086A000F055FA00983B2804D984A0009929
:101DC00000F04AFD06E0A7A0009900F045FD00984C
:101DD000606000E0E8E700BF00BFA84800F03CFDFD
:101DE00069467AA000F03CFA00983B2804D978A014
:101DF000009900F031FD06E0A1A0009900F02CFD53
:101E00000098206000E0E8E700BF38BDF0B5B9B049
:101E100005460C4605F5E14621463046FFF719FE1A
:101E2000A06818B9606808B9206818B19A480068B5
:101E300000282CD0227B217CA38A98B207ABFFF725
:101E4000CEFA9DF81F0000909DF81E309DF81D20D1
:101E50009DF81C1091A000F0FFFC227B217CA38A3E
:101E600098B207ABFFF7E0FB07A995A000F0F4FCE0
:101E7000227B217CA38A98B207ABFFF7B8FC18B18C
:101E800007A98FA000F0E8FC002083490860606982
:101E9000C01E0C2190FBF1F201FB12008D4951F89C
:101EA0002070DFF834C2A3695CF8233094E807009F
:101EB000CDE90232CDE90410D4E90310CDE90001E7
:101EC0003B4629468548626900F0C6FC39B0F0BD42
:101ED00004460CE082480068012808D1FEF7E8FEBD
:101EE00005462146FFF792FF00207D490860F1E793
:101EF0000D0A0D0A20525443206E6F7420796574C8
:101F000020636F6E666967757265642E2E2E2E00D3
:101F10000D0A0D0A2052544320636F6E666967757F
:101F20007265642E2E2E2E000D0A0D0A20506F773A
:101F30006572204F6E205265736574206F63637500
:101F4000727265642E2E2E2E000000000D0A0D0AFE
:101F50002045787465726E616C20526573657420DB
:101F60006F636375727265642E2E2E2E0000000062
:101F70000D0A204E6F206E65656420746F20636FBC
:101F80006E666967757265205254432E2E2E2E00A0
:101F90000D0A3D3D3D3D3D3D3D3D3D3D3D3D3D3DD4
:101FA0003D3D3D3D3D3D3D3D3D3D3DC9E8D6C3CA7E
:101FB000B1BCE43D3D3D3D3D3D3D3D3D3D3D3D3DB7
:101FC0003D3D3D3D3D000000183000082564000007
:101FD0000D0A20C4FACAE4C8EBB5C4CAFDD7D6CAF4
:101FE000C73A2564A3ACB2BBB7FBBACFD2AAC7F33A
:101FF000000000000A0D2020C4EAB7DDB1BBC9E82B
:10200000D6C3CEAA3A2025640A0D0000902F0008FE
:102010000A0D2020D4C2B7DDB1BBC9E8D6C3CEAA11
:102020003A2025640A0D0000E83000080A0D20203F
:10203000C8D5C6DAB1BBC9E8D6C3CEAA3A20256452
:102040000A0D0000D42F00080A0D2020CAB1D6D3F3
:10205000B1BBC9E8D6C3CEAA3A2025640A0D000058
:10206000A43000080A0D2020B7D6D6D3B1BBC9E8EA
:10207000D6C3CEAA3A2025640A0D000060300008BD
:102080000A0D2020C3EBD6D3B1BBC9E8D6C3CEAA74
:102090003A2025640A0D0000280200200D0A20BD08
:1020A000F1CCECD0C2C0FAA3BA25302E3264253070
:1020B0002E32642C25302E32642C25302E326400D2
:1020C0000D0A20BDF1CCECC5A9C0FAA3BA25730D49
:1020D0000A000000AC01002090010020402F000801
:1020E0008801002000B585B001210420FEF75CFDC9
:1020F00001218803FEF758FD4FF40070ADF8100081
:1021000018208DF8130003208DF8120004A922482E
:10211000FEF728FA4FF48060ADF8100004208DF827
:10212000130004A91C48FEF71DFA4FF4E13000909B
:102130000020ADF80400ADF80600ADF80800ADF8D9
:102140000C000C20ADF80A0069461448FEF777FE33
:1021500001211248FEF7FFFE05B000BD70B5044630
:102160000D46E1B20D48FEF763FF00BF80210B482A
:10217000FEF7CCFF0028F9D0204670BD10B504460C
:1021800000BF20210548FEF7C1FF0028F9D0034811
:10219000FEF752FF10BD000000080140003801406A
:1021A00008B501211420FEF7FFFC0120ADF8000066
:1021B00004208DF8030069461148FEF7D3F94FF467
:1021C0000050ADF8000004208DF8030069460D486A
:1021D000FEF7C8F908BD70B504460D4629462046ED
:1021E000FEF753FA012808D100BF29462046FEF722
:1021F0004CFA0128F9D0012070BD0020FCE7000056
:10220000000801400010014008B501210420FEF73C
:10221000CBFC0220ADF8000010208DF80300032055
:102220008DF8020069460448FEF79CF90221024835
:10223000FEF747FA08BD00000008014040EA01032C
:102240009B0703D009E008C9121F08C0042AFAD26C
:1022500003E011F8013B00F8013B521EF9D2704730
:102260000FB400B589B00BA800906A4603480A99DC
:1022700000F0D0F809B05DF814FB00002C0200203B
:102280002DE9FF5F1D464FF0FF3BD5E90146914622
:102290005F464FF00008A9697F1C01988847296AAA
:1022A000824688470028F6D1BAF1FF3F0CD024F4CB
:1022B000C064002E19DD600614D5BAF12B0F09D0C9
:1022C000BAF12D0F0ED103E0584604B0BDE8F09FDF
:1022D00044F48064A9697F1C01988847761E824671
:1022E000002E02DDBAF1300F03D0B9F1000F26D075
:1022F00032E0A969761E44F400747F1C0198884777
:102300008246002E05DDBAF1780F06D0BAF1580FDB
:1023100003D0B9F1000F10D01EE0B9F1000F02D0C8
:10232000B9F1100F18D1A969761E24F400747F1C2E
:10233000019888478246102002E0082000E00A2029
:10234000814609E008FB0908A969761E44F4007477
:102350007F1C019888478246002E05DD494650467D
:1023600000F04AF80028EDDAE96901988847A005ED
:1023700002D46FF00100A8E7E00725D1600613D56D
:10238000600502D5C8F1000000E0404629680A1D3A
:102390002A600968220501D5087015E0220701D5D9
:1023A000088011E008600FE02868011D29600068BE
:1023B000210502D580F8008006E0210702D5A0F8AB
:1023C000008001E0C0F8008038467EE730B50B465B
:1023D000014600202022012409E021FA02F59D4255
:1023E00005D303FA02F5491B04FA02F52844151E29
:1023F000A2F10102F1DC30BD3A2800D2303820F0E1
:102400002002412A01D3A2F13700884201D34FF0C4
:10241000FF307047024B9361024BD36100F032B83A
:102420007D21000869240008064C074D06E0E0689D
:1024300040F0010394E8070098471034AC42F6D30B
:10244000FDF758FEF431000814320008094910B5B0
:1024500008784C1C18B1401E0870205C10BD00218B
:102460000720ABBE207010BD02490878421C0A70DC
:1024700070470000340200200268114413780160A4
:1024800018467047D1600449516104491162002126
:102490001161114600F00AB879240008A12400084F
:1024A000C0B24FF4F05100F097B900002DE9F34F9E
:1024B0008BB04FF0000801F10C000C464FF0010BFF
:1024C00046460DF1080A0190626901210198904782
:1024D000051E2DD0252D2CD0216A8847C0B16269F8
:1024E000012101989047216A88470028F7D1411EB1
:1024F00062690198904700E0761CA1690B988847B3
:10250000216A88470028F7D1E1690B988847DBE703
:10251000A1690B9888470746A84201D1761CD3E7EA
:10252000E1690B9888477F1C02D1B8F1000F6FD08A
:1025300046E1002762693D463946019890472A28BE
:1025400004D162690121019890470125DFF8849246
:102550006269012101989047A0F130010A290AD24D
:102560004F45E5DC07EB870100EB4107303FDFD447
:1025700045F01005ECE7E90601D46FF000476C2840
:102580000AD04C2814D0682815D06A280DD0742899
:102590001CD07A281AD01DE0626901210198904769
:1025A0006C2802D045F0040514E045F002050DE06A
:1025B00045F020050AE062690121019890476828EA
:1025C00002D045F0080505E045F400656269012187
:1025D00001989047C4E9015765283DD019DC582877
:1025E0007AD00CDC452837D004DC252826D04128B9
:1025F00031D131E046282FD047282CD12CE05B2860
:1026000077D0612828D063287CD0642823D15AE071
:10261000D0E06F2848D008DC66281DD067281BD082
:10262000692821D06E2816D127E0702845D073285C
:1026300068D0752847D078280DD14DE0A1690B9856
:102640008847054625283FF469AFE1690B9888471C
:102650006D1C3FF46AAFB3E023466A466FF0010099
:102660000B99AFF300809EE045F040006060A80742
:1026700023464FF0000236D43EE0E8077FF447AF30
:102680002068011D21600068290501D506701BE73F
:10269000290701D5068017E7A90703D5F117C0E977
:1026A000006111E706600FE745F040006060A80791
:1026B00023464FF0080216D41EE040F60E0125EA2C
:1026C0000100606016E045F040006060A807234606
:1026D0004FF00A0207D40FE045F040006060A80701
:1026E00008D5234610226FF001000B99AFF300804C
:1026F00059E007E0234610226FF001000B99FFF725
:10270000BFFD50E04FF000094F464B46632802D012
:102710005B2806D040E0E80601D40120A060012734
:102720003AE062690121019890475E2805D14FF097
:1027300001096269494601989047216939B9002128
:102740000A46534643F82120491C0829FADBB0B356
:10275000216969B9C11700EBD16253110AEB8301FA
:1027600022F01F02821A01200B68904003430B6085
:1027700062690121019890475D28E8D1B9F1000F05
:1027800009D00020514651F82020D24341F82020A2
:10279000401C0828F7DB02AB224600976FF00100CF
:1027A0000B99AFF3008000280CDA401C08D1BBF174
:1027B000000F05D04FF0FF300DB0BDE8F08FFFE700
:1027C0004046F9E7E90701D108F1010806444FF056
:1027D000000B79E6CCCCCC0C7F2801D9002208E094
:1027E000064A02EB5002C007127800D1120902F02B
:1027F0000F0201209040084070470000B02D0008F3
:1028000070B58C1810F8015B15F0070301D110F8B2
:10281000013B2A1106D110F8012B03E010F8016BDF
:1028200001F8016B5B1EF9D12B0705D40023521E62
:102830000DD401F8013BFAE710F8013BCB1A921CCA
:1028400003E013F8015B01F8015B521EF9D5A142C8
:10285000D8D3002070BD00000FB4054B10B503A9FC
:10286000044A029800F018F810BC5DF814FB000050
:102870005D2100083002002002E008C8121F08C1D4
:10288000002AFAD170477047002001E001C1121FF1
:10289000002AFBD1704700002DE9FF4F8BB09A460C
:1028A0000F460546002606E025280BD052460D9916
:1028B00090476D1C761C28780028F5D10FB0304663
:1028C000BDE8F08F0024A0460122604900E00443E7
:1028D00015F8013F203B02FA03F00842F7D12878AF
:1028E0002E2817D115F8010F44F004042A280ED021
:1028F0006FF02F022878A0F1300109290AD808EBDF
:10290000880102EB410100EB01086D1CF2E757F86A
:10291000048B6D1C287869283ED006DC0028CDD0B9
:1029200063280BD0642804D136E0732810D07528B2
:102930004BD052460D999047761C85E017F8040B52
:102940008DF8000000208DF80100E946012003E029
:1029500057F8049B4FF0FF3061074FF0000401D49B
:102960000AE0641C44450DDA8442FADB19F80410CD
:102970000029F6D106E0641C8442FCDB19F804103F
:102980000029F8D1264404E019F8010B52460D99AC
:102990009047641EF8D257E001CF4FF00A0B002891
:1029A00002DA40422D2102E0210504D52B218DF8C9
:1029B0002410012103E0E10705D02021F7E70DF104
:1029C000200908910CE00021F9E701CF4FF00A0B34
:1029D000F9E75946FFF7FAFC01F1300209F8012D39
:1029E0000028F6D1ADEB090000F1200B600701D4FF
:1029F0004FF00108D84502DDA8EB0B0000E00020F5
:102A00008046002406E009A85246005D0D999047D3
:102A1000641C761C08988442F5DB04E030205246A2
:102A20000D999047761CB8F10001A8F10108F5DC7A
:102A300005E019F8010B52460D999047761CBBF141
:102A40000001ABF1010BF4DC6D1C34E70928010037
:102A500004AE530A57485526BD0D26500D954446E1
:102A6000AAB9056A4D09AD4224AEB604AE4A6A4D14
:102A7000BE0A4D520D25465D52BA0B544E0D6A43A7
:102A8000296D37095B4B749BC10497540A4B485B13
:102A900025BC06A55006D4454ADAB802B64D0957FA
:102AA000422497B704974A664B3E0D4A510EA546FD
:102AB00056D4BA05AD4E02B644393738092E4B7C90
:102AC00096BF0C95530D4A486DA53B0B554F056AB3
:102AD000454AADB9025D4D092D422C95B60A954A7D
:102AE0007B4ABD06CA510B5546555ABB04DA4E0AFD
:102AF0005B43352BB8052B4C8A953F0E955206AAA1
:102B0000487AD53C0AB54F04B6454A57390A574D5D
:102B10000526423E93350D954975AABE056A5109B1
:102B20006D4654AEBB04AD4F0A4D434D26B70D253F
:102B30004B8D52BF0B54520B6A47696D3C095B5079
:102B4000049B454A4BB90A4B4DAB25C206A554061A
:102B5000D4496ADA3D0AB6510937465497BB0497FF
:102B60004F064B4436A5370EA54A86B2BF05AC5377
:102B70000AB6475936BC092E500C96454D4AB80D39
:102B80004A4C0DA54125AAB6056A497AADBD025D3C
:102B900052092D475C95BA0A954E0B4A434B55375F
:102BA0000AD54A955ABF04BA530A5B48652BBC053F
:102BB0002B500A9345474AB906AA4C0AD54124DA54
:102BC000B604B64A69573D0A4E510D26465E933A01
:102BD0000D534D05AA4336B537096D4BB4AEBF044E
:102BE000AD530A4D486D25BC0D254F0D52445DAACD
:102BF000380B5A4C056D4124ADB6049B4A7A4BBE46
:102C00000A4B510AA5465B52BA06D24E0ADA423541
:102C10005B3709374B8497C1049753064B4866A529
:102C20003C0EA54F06B2444AB6380AAE4C092E42B5
:102C30003C97350C96497D4ABD0D4A510DA5455529
:102C4000AABA056A4E0A6D43452EB7052D4B8A95E3
:102C5000BF0A95530B4A476B553B0AD54F055A455A
:102C60004A5D380A5B4C052B423A93B60693497786
:102C700029BD06AA510AD54654DABA04B64E0A57F7
:102C8000434527380D264A8E933E0D52520DAA47D2
:102C900066B53B056D4F04AE454A4EB90A4D4C0D25
:102CA00015412D92B54EA6999CA29880001800104F
:102CB000244EA6999CA2988082180010244EA6D972
:102CC0009EA2988082180010044EE6D99EA6A88085
:102CD00082180010000FE6D9BEA6988882188000DE
:102CE000000FEFD9BEA6998C82988000000FEFDB11
:102CF000BEA6999CA2988000180FEFDBBEA6999CF7
:102D0000A2988000180FEFDBBEA2998CA098808259
:102D1000180BEFDBBEA6998CA2988082180FEFDB10
:102D2000BEE6D99EA2988082180FEFFBBFE6D99E1F
:102D3000A6988082180FFFFFFCEFD9BEA6180614D4
:102D400004130615051406150615071708170817A6
:102D5000081808160716001F3B5A7897B5D4F300D9
:102D6000110130014E0100030306010406020500B3
:102D700003051F1C1F1E1F1E1F1F1E1F1E1F0000DE
:102D8000000000001F0000003B0000005A0000008F
:102D90007800000097000000B5000000D40000009B
:102DA000F300000011010000300100004E0100009E
:102DB000DDDDDDDDDCBBBBDDDDDDDDDDDDDDDDDD88
:102DC00098888888888888887777777777888888C8
:102DD0008555555666666666666666666668888860
:102DE0008333333222222222222222222228888D59
:102DF000B6A10000BAA50000D8A50000D0A1D1A9B5
:102E000000000000B4F3D1A900000000C1A2B6ACDC
:102E100000000000B6AC0000D0A1BAAE0000000077
:102E2000B4F3BAAE00000000C3AE0000CAAE0000AA
:102E3000D3EACBAE00000000C0B00000CEB400006A
:102E4000CBAABDB500000000BAAEC2B600000000BB
:102E5000B0D7C2B600000000C1A2B4BA00000000A2
:102E6000BCBA0000D2BB0000B3BD0000D0C100005E
:102E7000B6ACD6C100000000CFC4D6C1000000002F
:102E8000CBC40000C1A2CFC400000000BEC500003A
:102E9000CBC80000C8C90000B0CB0000D3CF0000F1
:102EA000D2D20000D7D30000B4BAB7D600000000D9
:102EB000C7EFB7D600000000C3A2D6D600000000BE
:102EC000BCD70000BEAAD5DD00000000C6DF0000B0
:102ED000CEE50000CEE70000D0E70000C9EA000020
:102EE000B9C8D3EA00000000CEEC0000D0A1CAEEC1
:102EF00000000000B4A6CAEE00000000B4F3CAEE61
:102F000000000000B9EF0000C1A2C7EF0000000000
:102F1000B3F30000B3F50000C7E5C3F700000000FD
:102F2000C1F90000CFC4C2FA00000000D2FA0000CC
:102F3000B1FB0000B8FD0000C8FD0000B6FE0000B7
:102F400020554E4958CAB1BCE4B4C1203D20256487
:102F500020B5B1C7B0CAB1BCE4CEAA3A202564C43A
:102F6000EA282573C4EA29202564D4C2202564C830
:102F7000D52028D0C7C6DA257329202025302E3247
:102F8000643A25302E32643A25302E32640D00002A
:102F90000D0A2020C7EBCAE4C8EBD4C2B7DD285025
:102FA0006C6561736520536574204D6F6E74687332
:102FB000293AB7B6CEA75B317E31325DA3ACCAE405
:102FC000C8EBD7D6B7FBBAF3C7EBBCD3BBD8B3B506
:102FD0003A0000000D0A2020C7EBCAE4C8EBCAB1D2
:102FE000D6D328506C656173652053657420486F93
:102FF000757273292CB7B6CEA75B307E32335DA3D2
:10300000ACCAE4C8EBD7D6B7FBBAF3C7EBBCD3BBAB
:10301000D8B3B53A000000000D0A2020C7EBCAE47F
:10302000C8EBC4EAB7DD28506C6561736520536551
:1030300074205965617273292CB7B6CEA75B3139FC
:1030400037307E323033385DA3ACCAE4C8EBD7D614
:10305000B7FBBAF3C7EBBCD3BBD8B3B53A0000009B
:103060000D0A2020C7EBCAE4C8EBC3EBD6D3285027
:103070006C6561736520536574205365636F6E647E
:1030800073292CB7B6CEA75B307E35395DA3ACCAA9
:10309000E4C8EBD7D6B7FBBAF3C7EBBCD3BBD8B306
:1030A000B53A00000D0A2020C7EBCAE4C8EBB7D63A
:1030B000D6D328506C6561736520536574204D69C3
:1030C0006E75746573292CB7B6CEA75B307E353923
:1030D0005DA3ACCAE4C8EBD7D6B7FBBAF3C7EBBC69
:1030E000D3BBD8B3B53A00000D0A2020C7EBCAE421
:1030F000C8EBC8D5C6DA28506C6561736520536586
:1031000074204D6F6E746873292CB7B6CEA75B31EF
:103110007E25645DA3ACCAE4C8EBD7D6B7FBBAF38F
:10312000C7EBBCD3BBD8B3B53A000000536E616B9C
:1031300065000000486F7273650000005069670009
:10314000446F6700447261676F6E00005469676581
:1031500072000000526F6F737465720052617400E8
:10316000476F617400000000526162626974000080
:103170004F78000046726964617900004D6F6E649B
:103180006179000053756E64617900005361747554
:1031900072646179000000005765646E6573646154
:1031A0007900000054756573646179005468757224
:1031B00073646179000000004D6F6E6B65790000EB
:1031C000BBA20000C5A30000BCA60000B9B7000068
:1031D000CDC30000C8D50000C9DF0000C2ED00006B
:1031E000D6ED0000BAEF0000D1F20000CAF30000F3
:1031F000C1FA00001432000800000020380200006C
:10320000002800085C330008380200200004000099
:10321000882800081184A24A0468090102030406F0
:103220000708090C6910C5020406085A010463D096
:1032300007A91DE91C13182E1B0820041A58041A8C
:1032400030041AC4041AA80413182F1B08E0081A23
:1032500084041A240C1AB8081A78041AEC041AFC0C
:10326000041A08141AF4081A50041AB0041A48046C
:103270001A40042A0C20122D1B0804081A70041A84
:10328000C0042AA05C19301AF0181AE80C1A60045D
:103290001A34101A6C081A94041A040C1AA4081A86
:1032A00010081A2C041A280C1A68041A90041AD44C
:1032B000041A3C041ADC041A9C041AD8041AF448B0
:1032C0002A6418192C1A38041A800C2AD0C8190C30
:1032D0001ACC081A98041A8C041A2C041A14042AFA
:1032E0003808295C19081AF83C2934321F321C2985
:1032F00008DA1E08091214810B18D4317C1AE01C5C
:103300001AEC041AC4041AC0041AD0041AF0041ADD
:10331000D8041ADC041AE8041AE4041AC8041ACC03
:10332000041A84041A7C041AA4041A98041AAC041B
:103330001A74041A8C041A3C041A5C041A70041AD5
:103340004C041A68041A44041A2C041A34041A602F
:0C335000041AB8041A54041A4004F201D4
:04000005080000ED02
:00000001FF
